:100000000C942A000C9447000C9447000C94470071
:100010000C9447000C9447000C9447000C94470044
:100020000C9447000C9447000C9447000C94470034
:100030000C9447000C9447000C9447000C94470024
:100040000C9447000C9447000C9447000C94470014
:100050000C94470011241FBECFE5D8E0DEBFCDBF12
:1000600012E0A0E6B0E0E4E6F1E302C005900D92F4
:10007000A830B107D9F712E0A8E0B2E001C01D92A4
:10008000A930B107E1F70E9443130C94B0180C9407
:100090000000EF92FF920F931F937B018C0120E0F1
:1000A00030E040E05FE40E94F50388238CF0C80153
:1000B000B70120E030E040E05FE40E94C1010E940F
:1000C000B3049B01AC01205030404040504806C072
:1000D000C801B7010E94B3049B01AC01B901CA0178
:1000E0001F910F91FF90EF900895A0E0B0E0EBE733
:1000F000F0E00C947918DC012B01FA019C9192300C
:1001000008F439C1EB018881823008F433C194309E
:1001100069F4843009F02FC111969C91119789815F
:10012000981709F428C1ACEEB0E025C1843009F479
:1001300021C18230A9F4923009F01DC19A01AD01AC
:1001400088E0EA010990AE01E90109929E0181501F
:10015000C1F7E201898111969C918923818308C1AD
:10016000923009F407C112962D903C901397EB0141
:100170008A819B811496AD90BD90CD90DC901797AD
:10018000EC80FD800E811F819101281B390BB90184
:1001900037FF04C066277727621B730B6032710537
:1001A0000CF061C0121613066CF537014801062EDB
:1001B00004C096948794779467940A94D2F721E0C8
:1001C00030E040E050E004C0220F331F441F551FB1
:1001D0006A95D2F721503040404050402E213F21B7
:1001E00040235123211531054105510521F021E01E
:1001F00030E040E050E079018A01E628F72808293C
:1002000019293CC0232BD1F1260E371E350146019A
:10021000062E04C096948794779467940A94D2F734
:1002200021E030E040E050E004C0220F331F441FC3
:10023000551F6A95D2F721503040404050402A2146
:100240003B214C215D21211531054105510521F04E
:1002500021E030E040E050E059016A01A628B728CB
:10026000C828D9280BC0821593052CF01C01AA249C
:10027000BB24650103C0EE24FF24870111969C91E5
:10028000D20111968C91981709F445C0992339F041
:10029000A80197012A193B094C095D0906C0A6016E
:1002A00095012E193F09400B510B57FD08C01182D3
:1002B0003382228224833583468357831DC081E0A5
:1002C00081833382228288279927DC01821B930B4A
:1002D000A40BB50B84839583A683B7830DC0220F2F
:1002E000331F441F551F24833583468357838281E0
:1002F000938101979383828324813581468157813D
:10030000DA01C9010197A109B1098F5F9F4FAF4F72
:10031000BF4328F30BC0918333822282EA0CFB1C7B
:100320000C1D1D1DE482F5820683178383E0808304
:10033000248135814681578157FF1AC0C901AA27F8
:1003400097FDA095BA2F81709070A070B0705695EF
:10035000479537952795822B932BA42BB52B848318
:100360009583A683B7838281938101969383828349
:10037000DF0101C0D201CD01CDB7DEB7E2E10C94BF
:100380009518A0E2B0E0E7ECF1E00C9485186983E1
:100390007A838B839C832D833E834F835887E9E048
:1003A000EE2EF12CEC0EFD1ECE010196B7010E943F
:1003B0002B068E010F5E1F4FCE010596B8010E94DD
:1003C0002B068A8991E089278A8BC701B801AE0183
:1003D000475E5F4F0E9475000E945605A096E6E0BA
:1003E0000C94A118A0E2B0E0E8EFF1E00C948518BD
:1003F00069837A838B839C832D833E834F835887C5
:10040000F9E0EF2EF12CEC0EFD1ECE010196B701A6
:100410000E942B068E010F5E1F4FCE010596B8017C
:100420000E942B06C701B801AE01475E5F4F0E94D4
:1004300075000E945605A096E6E00C94A118A0E273
:10044000B0E0E5E2F2E00C94791869837A838B835B
:100450009C832D833E834F835887CE010196BE0136
:10046000675F7F4F0E942B06CE010596BE016F5E2F
:100470007F4F0E942B069985923088F089898230BF
:10048000C8F0943019F4823051F404C0843029F457
:10049000923081F48CEE90E0C6C0923049F420E0B6
:1004A0009A858A89981321E02A87CE010996BBC0D4
:1004B000823049F420E09A858A89981321E02A8BBA
:1004C000CE014196B0C02D843E844F8458886D88FB
:1004D0007E888F88988CEE24FF248701AA24BB2471
:1004E000650140E050E060E070E0E0E0F0E0C10174
:1004F00081709070892BE9F0E60CF71C081D191D1E
:100500009A01AB012A0D3B1D4C1D5D1D80E090E062
:10051000A0E0B0E0E614F7040805190520F481E036
:1005200090E0A0E0B0E0BA01A901480F591F6A1F8E
:100530007B1FAA0CBB1CCC1CDD1C97FE08C081E0F5
:1005400090E0A0E0B0E0A82AB92ACA2ADB2A3196B6
:10055000E032F10549F0660C771C881C991C569412
:10056000479437942794C3CFFA85EA892B893C892D
:100570008B859C85280F391F2E5F3F4F17C0CA01FE
:1005800081709070892B61F016950795F794E79428
:1005900080E090E0A0E0B0E8E82AF92A0A2B1B2BC3
:1005A00076956795579547952F5F3F4F77FDE7CF36
:1005B0000CC0440F551F661F771F17FD4160EE0CDE
:1005C000FF1C001F111F21503040403090E05907A0
:1005D00090E0690790E4790760F32B8F3C8FDB0193
:1005E000CA018F779070A070B07080349105A1051A
:1005F000B10561F447FD0AC0E114F10401051105DC
:1006000029F0405C5F4F6F4F7F4F40781A8EFE1786
:1006100011F081E08A8F4D8F5E8F6F8F78A383E01A
:10062000898FCE0149960E945605A096E2E10C946E
:100630009518A8E1B0E0EFE1F3E00C94811869832C
:100640007A838B839C832D833E834F835887B9E0C5
:10065000EB2EF12CEC0EFD1ECE010196B7010E948F
:100660002B068E010F5E1F4FCE010596B8010E942A
:100670002B062985223008F47EC03989323010F4E7
:10068000B8017CC08A859A8989278A87243011F02D
:10069000223031F4231709F06EC06CEE70E06EC0AA
:1006A000343039F41D861E861F86188A1C861B86E8
:1006B00004C0323021F484E08987B7015FC02B8504
:1006C0003C858B899C89281B390B3C872B87ED84C3
:1006D000FE840F851889AD88BE88CF88D88CEA142F
:1006E000FB040C051D0540F4EE0CFF1C001F111F40
:1006F000215030403C872B8720E030E040E050E044
:1007000080E090E0A0E0B0E460E070E0EA14FB0478
:100710000C051D0540F0282B392B4A2B5B2BEA18C2
:10072000FB080C091D09B695A79597958795EE0CC2
:10073000FF1C001F111F6F5F7F4F6F31710531F775
:10074000DA01C9018F779070A070B0708034910584
:10075000A105B10561F427FD0AC0E114F10401050A
:10076000110529F0205C3F4F4F4F5F4F20782D87B8
:100770003E874F87588BBE01675F7F4FCB010E943A
:1007800056056896EAE00C949D18A8E1B0E0EBEC01
:10079000F3E00C94851869837A838B839C832D8383
:1007A0003E834F83588789E0E82EF12CEC0EFD1E26
:1007B000CE010196B7010E942B068E010F5E1F4FDE
:1007C000CE010596B8010E942B068985823040F043
:1007D0008989823028F0C701B8010E94A30601C0B0
:1007E0008FEF6896E6E00C94A118A8E1B0E0EBEF7B
:1007F000F3E00C94851869837A838B839C832D8323
:100800003E834F83588789E0E82EF12CEC0EFD1EC5
:10081000CE010196B7010E942B068E010F5E1F4F7D
:10082000CE010596B8010E942B068985823040F0E2
:100830008989823028F0C701B8010E94A30601C04F
:100840008FEF6896E6E00C94A118A8E1B0E0EBE227
:10085000F4E00C94851869837A838B839C832D83C1
:100860003E834F83588789E0E82EF12CEC0EFD1E65
:10087000CE010196B7010E942B068E010F5E1F4F1D
:10088000CE010596B8010E942B068985823040F082
:100890008989823028F0C701B8010E94A30601C0EF
:1008A00081E06896E6E00C94A118A8E0B0E0EBE5E2
:1008B000F4E00C9482189B01AC0183E08983DA0197
:1008C000C9018827B7FD83959927AA27BB27B82E8A
:1008D000211531054105510519F482E089833AC09B
:1008E0008823A9F0203080E0380780E0480780E8BE
:1008F000580729F460E070E080E09FEC30C0EE24FF
:10090000FF248701E21AF30A040B150B02C07901D8
:100910008A018EE1C82ED12CDC82CB82ED82FE8250
:100920000F831887C801B7010E94070501971816A1
:10093000190684F4082E04C0EE0CFF1C001F111FC2
:100940000A94D2F7ED82FE820F831887C81AD90A5B
:10095000DC82CB82BA82CE0101960E94560528968F
:10096000E9E00C949E18ACE0B0E0E9EBF4E00C9404
:10097000891869837A838B839C83CE010196BE019B
:100980006B5F7F4F0E942B068D81823061F1823038
:1009900050F1843021F48E81882351F12EC02F81B3
:1009A000388537FD20C06E812F3131051CF066235C
:1009B000F9F023C08EE190E0821B930B29853A85E4
:1009C0004B855C8504C056954795379527958A9544
:1009D000D2F76623B1F050954095309521953F4F61
:1009E0004F4F5F4F0EC020E030E040E050E009C0C4
:1009F0002FEF3FEF4FEF5FE704C020E030E040E033
:100A000050E8B901CA012C96E2E00C94A518EF92C7
:100A1000FF920F931F937B018C0180E0E81680E02A
:100A2000F80681E0080780E0180788F48FEFE816E1
:100A3000F1040105110531F028F088E090E0A0E014
:100A4000B0E017C080E090E0A0E0B0E012C080E02D
:100A5000E81680E0F80680E0080781E0180728F033
:100A600088E190E0A0E0B0E004C080E190E0A0E088
:100A7000B0E020E230E040E050E0281B390B4A0BA8
:100A80005B0B04C016950795F794E7948A95D2F707
:100A9000F701EC50FF4F8081281B310941095109B2
:100AA000C9011F910F91FF90EF900895DF92EF928F
:100AB000FF920F931F93FC01E480F580068117815C
:100AC000D1808081823048F480E090E0A0E1B0E005
:100AD000E82AF92A0A2B1B2BA5C0843009F49FC0F1
:100AE000823021F4EE24FF24870105C0E114F104D3
:100AF0000105110519F4E0E0F0E096C06281738110
:100B00009FEF623879070CF05BC022E83FEF261BAD
:100B1000370B2A3131052CF020E030E040E050E086
:100B20002AC0B801A701022E04C076956795579593
:100B300047950A94D2F781E090E0A0E0B0E004C0CD
:100B4000880F991FAA1FBB1F2A95D2F70197A109E9
:100B5000B1098E219F21A023B1230097A105B105E2
:100B600021F081E090E0A0E0B0E09A01AB01282BF9
:100B7000392B4A2B5B2BDA01C9018F779070A0705B
:100B8000B07080349105A105B10539F427FF09C083
:100B9000205C3F4F4F4F5F4F04C0215C3F4F4F4F92
:100BA0005F4FE0E0F0E02030A0E03A07A0E04A0725
:100BB000A0E45A0710F0E1E0F0E079018A0127C0D3
:100BC0006038710564F5FB01E158FF4FD801C7019A
:100BD0008F779070A070B07080349105A105B10539
:100BE00039F4E7FE0DC080E490E0A0E0B0E004C07E
:100BF0008FE390E0A0E0B0E0E80EF91E0A1F1B1F93
:100C000017FF05C016950795F794E794319687E08E
:100C100016950795F794E7948A95D1F705C0EE24C9
:100C2000FF248701EFEFF0E06E2F67956627679549
:100C3000902F9F77D794DD24D7948E2F8695492FB8
:100C4000462B582F5D29B701CA011F910F91FF90C4
:100C5000EF90DF900895FC01DB01408151812281FA
:100C6000622F6F7770E0221F2227221F9381892F26
:100C7000880F822B282F30E0991F9927991F1196F2
:100C80009C93119721153105A9F541155105610571
:100C9000710511F482E037C082E89FEF13969C93B0
:100CA0008E9312979A01AB0167E0220F331F441F06
:100CB000551F6A95D1F783E08C930DC0220F331F27
:100CC000441F551F12968D919C911397019713966F
:100CD0009C938E931297203080E0380780E048077D
:100CE00080E4580758F314962D933D934D935C93ED
:100CF000179708952F3F310579F441155105610586
:100D0000710519F484E08C93089564FF03C081E0B9
:100D10008C9312C01C9210C02F57304013963C93F6
:100D20002E93129783E08C9387E0440F551F661F24
:100D3000771F8A95D1F7706414964D935D936D93E8
:100D40007C93179708951F93DC01FB019C919230CF
:100D500008F447C08081823008F443C0943051F4D5
:100D600011961C91843099F58181682F70E0611B88
:100D700071093FC0843021F0923031F48230B9F1F2
:100D80008181882389F12DC011961C9111978230A1
:100D9000F1F081811817D9F412962D913C91139797
:100DA000828193818217930794F028173907BCF04A
:100DB00014968D919D910D90BC91A02D248135812B
:100DC00046815781281739074A075B0718F4112312
:100DD00041F00AC082179307A407B50740F4112316
:100DE00019F061E070E005C06FEF7FEF02C060E0D6
:100DF00070E0CB011F910895DF93CF93CDB7DEB79D
:100E00002F970FB6F894DEBF0FBECDBF8F8781E05E
:100E100060E040E00E94E30981E061E040E00E9480
:100E2000E30980E06F850E94E40A81E062E041E02E
:100E30000E94E30980E090E0A0E0B0E48B879C870B
:100E4000AD87BE876B857C858D859E8520E030E0F3
:100E50004AEF54E40E941F02DC01CB018F83988784
:100E6000A987BA876F81788589859A8520E030E0E7
:100E700040E85FE30E94250488232CF481E090E0A1
:100E80009E838D833FC06F81788589859A8520E018
:100E90003FEF4FE757E40E94C50318164CF56B85EA
:100EA0007C858D859E8520E030E040E251E40E9403
:100EB0001F02DC01CB01BC01CD010E944900DC0115
:100EC000CB019E838D830FC088EC90E09C838B8345
:100ED0008B819C810197F1F79C838B838D819E810F
:100EE00001979E838D838D819E81009769F714C041
:100EF0006F81788589859A850E944900DC01CB0144
:100F00009E838D838D819E819A83898389819A8135
:100F10000197F1F79A83898381E062E040E00E94C3
:100F2000E3092F960FB6F894DEBF0FBECDBFCF9169
:100F3000DF910895DF93CF93CDB7DEB72F970FB62C
:100F4000F894DEBF0FBECDBF8F8781E060E041E047
:100F50000E94E30981E061E040E00E94E30980E053
:100F60006F850E94E40A81E062E041E00E94E309AB
:100F700080E090E0A0E0B0E48B879C87AD87BE87DF
:100F80006B857C858D859E8520E030E04AEF54E4BA
:100F90000E941F02DC01CB018F839887A987BA8743
:100FA0006F81788589859A8520E030E040E85FE3AD
:100FB0000E94250488232CF481E090E09E838D8399
:100FC0003FC06F81788589859A8520E03FEF4FE7A4
:100FD00057E40E94C50318164CF56B857C858D85FA
:100FE0009E8520E030E040E251E40E941F02DC01D7
:100FF000CB01BC01CD010E944900DC01CB019E83E5
:101000008D830FC088EC90E09C838B838B819C81C7
:101010000197F1F79C838B838D819E8101979E833D
:101020008D838D819E81009769F714C06F817885CB
:1010300089859A850E944900DC01CB019E838D83BE
:101040008D819E819A83898389819A810197F1F7A5
:101050009A83898381E062E040E00E94E3092F9651
:101060000FB6F894DEBF0FBECDBFCF91DF910895CC
:10107000DF93CF93CDB7DEB72E970FB6F894DEBFD0
:101080000FBECDBF80E090E0A0E2B2E48B879C87EA
:10109000AD87BE876B857C858D859E8520E030E0A1
:1010A0004AEF54E40E941F02DC01CB018F83988732
:1010B000A987BA876F81788589859A8520E030E095
:1010C00040E85FE30E94250488232CF481E090E04F
:1010D0009E838D833FC06F81788589859A8520E0C6
:1010E0003FEF4FE757E40E94C50318164CF56B8598
:1010F0007C858D859E8520E030E040E251E40E94B1
:101100001F02DC01CB01BC01CD010E944900DC01C2
:10111000CB019E838D830FC088EC90E09C838B83F2
:101120008B819C810197F1F79C838B838D819E81BC
:1011300001979E838D838D819E81009769F714C0EE
:101140006F81788589859A850E944900DC01CB01F1
:101150009E838D838D819E819A83898389819A81E3
:101160000197F1F79A83898388E30E94FC068CE05B
:101170000E94FC0681E00E94FC062E960FB6F894B1
:10118000DEBF0FBECDBFCF91DF910895DF93CF9328
:1011900000D00F92CDB7DEB78A836B838A81882314
:1011A00019F48B81898306C08A81813019F48B817F
:1011B000805C8983898180580E94FC060F900F9083
:1011C0000F90CF91DF910895DF93CF9300D00F92CE
:1011D000CDB7DEB79B838A8319821BC0809108023A
:1011E000813121F481E060E00E94C6088981282FC6
:1011F00030E08A819B81FC01E20FF31F80810E9415
:101200009A0789818F5F8983809108028F5F80931D
:1012100008028981282F30E08A819B81FC01E20F3E
:10122000F31F80818823D1F6109208020F900F904F
:101230000F90CF91DF910895DF93CF93CDB7DEB7B5
:1012400027970FB6F894DEBF0FBECDBF9C838B836C
:101250006D834E832F838D81882F90E0880F991F97
:10126000880F991F880F991F8A838A81805C0E944A
:10127000FC0619820EC08981282F30E08B819C8169
:10128000FC01E20FF31F80810E949A0789818F5F22
:1012900089838981883078F38E816F810E94C608A6
:1012A0008D810E949A0727960FB6F894DEBF0FBE75
:1012B000CDBFCF91DF910895DF93CF9300D000D0C1
:1012C000CDB7DEB769837A838B839C8389819A81CA
:1012D000AB81BC810097A105B10519F189819A8183
:1012E000AB81BC812AE030E040E050E0BC01CD01A0
:1012F0000E945718DA01C901BC01CD010E945C09A6
:1013000089819A81AB81BC812AE030E040E050E0E5
:10131000BC01CD010E945718DC01CB01805D0E9409
:101320009A070F900F900F900F90CF91DF91089533
:10133000DF93CF9300D00F92CDB7DEB789836A8356
:101340004B8389816B8140E00E94E30989816A8136
:1013500041E00E94E3090F900F900F90CF91DF9131
:101360000895DF93CF9300D00F92CDB7DEB7898376
:101370006A834B8389816B8140E00E94E309898104
:101380006A8141E00E94E3090F900F900F90CF9186
:10139000DF910895DF93CF9300D00F92CDB7DEB7E2
:1013A00089836A834B8389816A8140E00E94E309D3
:1013B00089816B8140E00E94E3090F900F900F90AC
:1013C000CF91DF910895DF93CF9300D000D000D06C
:1013D000CDB7DEB78A836B834C8319828A81282F2D
:1013E00030E03E832D838D819E818130910509F40B
:1013F00049C02D813E81223031052CF48D819E81A2
:10140000009771F0D5C02D813E812230310509F45D
:101410006BC08D819E818330910509F497C0C8C04F
:101420008C818130A1F4ABE3B0E0EBE3F0E08081AC
:10143000482F8B81282F30E081E090E0022E02C0FF
:10144000880F991F0A94E2F7842B8C93B3C08C8188
:101450008823A9F4ABE3B0E0EBE3F0E08081482F10
:101460008B81282F30E081E090E0022E02C0880FAF
:10147000991F0A94E2F7809584238C939BC081E0A6
:10148000898398C08C818130A1F4A8E3B0E0E8E3BF
:10149000F0E08081482F8B81282F30E081E090E0C0
:1014A000022E02C0880F991F0A94E2F7842B8C93B6
:1014B00081C08C818823A9F4A8E3B0E0E8E3F0E0E0
:1014C0008081482F8B81282F30E081E090E0022E30
:1014D00002C0880F991F0A94E2F7809584238C93A9
:1014E00069C081E0898366C08C818130A1F4A5E365
:1014F000B0E0E5E3F0E08081482F8B81282F30E0D9
:1015000081E090E0022E02C0880F991F0A94E2F752
:10151000842B8C934FC08C818823A9F4A5E3B0E081
:10152000E5E3F0E08081482F8B81282F30E081E0D7
:1015300090E0022E02C0880F991F0A94E2F780956E
:1015400084238C9337C081E0898334C08C818130BF
:10155000A1F4A2E3B0E0E2E3F0E08081482F8B81C8
:10156000282F30E081E090E0022E02C0880F991F02
:101570000A94E2F7842B8C931DC08C818823A9F4F4
:10158000A2E3B0E0E2E3F0E08081482F8B81282FD6
:1015900030E081E090E0022E02C0880F991F0A948B
:1015A000E2F7809584238C9305C081E0898302C093
:1015B00081E08983898126960FB6F894DEBF0FBE3D
:1015C000CDBFCF91DF910895DF93CF9300D000D0AE
:1015D0000F92CDB7DEB78A836B838A81282F30E0E4
:1015E0003D832C838C819D8181309105D9F02C81A4
:1015F0003D81223031052CF48C819D81009761F072
:1016000023C02C813D812230310591F08C819D8158
:101610008330910599F018C0EBE3F0E08B81808373
:10162000198214C0E8E3F0E08B81808319820EC038
:10163000E5E3F0E08B818083198208C0E2E3F0E00B
:101640008B818083198202C081E0898389810F9018
:101650000F900F900F900F90CF91DF910895DF932F
:10166000CF93CDB7DEB727970FB6F894DEBF0FBE86
:10167000CDBF8A836B835D834C838C819D81009772
:1016800019F08B81883018F081E0898377C08A81D6
:10169000282F30E03F832E834E815F8141305105FA
:1016A00061F18E819F818230910534F42E813F81DA
:1016B0002115310569F060C04E815F8142305105CE
:1016C00089F18E819F818330910509F440C054C017
:1016D000E9E3F0E08081282F30E08B81882F90E0D3
:1016E000A90102C0559547958A95E2F7CA01817014
:1016F000EC81FD818083198241C0E6E3F0E08081C6
:10170000282F30E08B81882F90E0A90102C05595E9
:1017100047958A95E2F7CA018170EC81FD8180834B
:1017200019822CC0E3E3F0E08081282F30E08B8128
:10173000882F90E0A90102C0559547958A95E2F758
:10174000CA018170EC81FD818083198217C0E0E3BA
:10175000F0E08081282F30E08B81882F90E0A90174
:1017600002C0559547958A95E2F7CA018170EC81D0
:10177000FD818083198202C081E089838981279657
:101780000FB6F894DEBF0FBECDBFCF91DF910895A5
:10179000DF93CF9300D000D00F92CDB7DEB78A830E
:1017A0006B838A81282F30E03D832C838C819D813F
:1017B0008130910559F12C813D81223031052CF485
:1017C0008C819D81009769F060C02C813D81223021
:1017D000310589F18C819D818330910509F440C0E8
:1017E00054C0ABE3B0E0EBE3F0E08081482F8B81A5
:1017F000282F30E081E090E0022E02C0880F991F70
:101800000A94E2F784278C93198241C0A8E3B0E0E0
:10181000E8E3F0E08081482F8B81282F30E081E0E1
:1018200090E0022E02C0880F991F0A94E2F78427E5
:101830008C9319822CC0A5E3B0E0E5E3F0E0808151
:10184000482F8B81282F30E081E090E0022E02C0EB
:10185000880F991F0A94E2F784278C93198217C086
:10186000A2E3B0E0E2E3F0E08081482F8B81282FF3
:1018700030E081E090E0022E02C0880F991F0A94A8
:10188000E2F784278C93198202C081E089838981E1
:101890000F900F900F900F900F90CF91DF910895C0
:1018A000DF93CF9300D000D00F92CDB7DEB78FEF8C
:1018B0008B831A825EC08A81882F90E0FC01E850F9
:1018C000FE4F908182E0692F40E00E94E309198277
:1018D0003DC08981882F90E0FC01EC50FE4F908143
:1018E0009E012C5F3F4F82E0692FA9010E942F0BC0
:1018F0008C81882341F58981282F30E08A81482F07
:1019000050E0C901880F991F820F931F840F951F04
:10191000FC01E550FE4F80818B830FC08981882FA9
:1019200090E0FC01EC50FE4F90819E012C5F3F4FF8
:1019300082E0692FA9010E942F0B8C81882371F30B
:101940008B818D831CC089818F5F898389818430DD
:1019500008F4BFCF8A81882F90E0FC01E850FE4F49
:10196000908182E0692F41E00E94E3098A818F5FC4
:101970008A838A81833008F49ECF8B818D838D8109
:101980000F900F900F900F900F90CF91DF910895CF
:10199000DF93CF93CDB7DEB7EAE3F0E08FEF80833C
:1019A000E7E3F0E087EC8083E4E3F0E087E0808326
:1019B000E1E3F0E08FE08083EBE3F0E01082E8E326
:1019C000F0E01082E5E3F0E08FEF8083E2E3F0E007
:1019D0001082CF91DF910895DF93CF93CDB7DEB71B
:1019E000C254D0400FB6F894DEBF0FBECDBFFE018B
:1019F000EF5BFF4F91838083FE01EF5BFF4F019010
:101A0000F081E02D85819681A781B085BC01CD0153
:101A100023E333E343E35EE30E941903DC01CB01DC
:101A2000FE01FD9680839183A283B383FE01FD9620
:101A3000608171818281938120E030E040E850E450
:101A40000E941903DC01CB01BC01CD010E944900B9
:101A5000DC01CB019CAF8BAF1AAE19AEEDC2FE011B
:101A6000EF5BFF4F0190F081E02D8081FE01EF5B85
:101A7000FF4F0190F081E02D9181692F40E00E949D
:101A8000E309FE01EF5BFF4F0190F081E02D8081C3
:101A9000FE01EF5BFF4F0190F081E02D9281692FF5
:101AA00041E00E94E309FE01EF5BFF4F0190F081EE
:101AB000E02D8081FE01EF5BFF4F0190F081E02D72
:101AC0009381692F41E00E94E309FE01EF5BFF4F24
:101AD0000190F081E02D8081FE01EF5BFF4F0190CE
:101AE000F081E02D9481692F41E00E94E30980E0BC
:101AF00090E0A0EAB1E48DAB9EABAFABB8AF6DA9FF
:101B00007EA98FA998AD20E030E04AEF54E40E940E
:101B10001F02DC01CB0189AB9AABABABBCAB69A9B3
:101B20007AA98BA99CA920E030E040E85FE30E94FD
:101B3000250488232CF481E090E098AB8FA73FC068
:101B400069A97AA98BA99CA920E03FEF4FE757E448
:101B50000E94C50318164CF56DA97EA98FA998ADF2
:101B600020E030E040E251E40E941F02DC01CB01A2
:101B7000BC01CD010E944900DC01CB0198AB8FA7CD
:101B80000FC088EC90E09EA78DA78DA59EA501971C
:101B9000F1F79EA78DA78FA598A9019798AB8FA75E
:101BA0008FA598A9009769F714C069A97AA98BA98C
:101BB0009CA90E944900DC01CB0198AB8FA78FA59F
:101BC00098A99CA78BA78BA59CA50197F1F79CA72B
:101BD0008BA7FE01EF5BFF4F0190F081E02D80812C
:101BE000FE01EF5BFF4F0190F081E02D9181692FA5
:101BF00041E00E94E309FE01EF5BFF4F0190F0819D
:101C0000E02D8081FE01EF5BFF4F0190F081E02D20
:101C10009281692F40E00E94E309FE01EF5BFF4FD4
:101C20000190F081E02D8081FE01EF5BFF4F01907C
:101C3000F081E02D9381692F41E00E94E309FE01CC
:101C4000EF5BFF4F0190F081E02D8081FE01EF5BA3
:101C5000FF4F0190F081E02D9481692F41E00E94B7
:101C6000E30980E090E0A0EAB1E48FA398A7A9A7D8
:101C7000BAA76FA178A589A59AA520E030E04AEF20
:101C800054E40E941F02DC01CB018BA39CA3ADA3F3
:101C9000BEA36BA17CA18DA19EA120E030E040E815
:101CA0005FE30E94250488232CF481E090E09AA34E
:101CB00089A33FC06BA17CA18DA19EA120E03FEF35
:101CC0004FE757E40E94C50318164CF56FA178A59D
:101CD00089A59AA520E030E040E251E40E941F026D
:101CE000DC01CB01BC01CD010E944900DC01CB012C
:101CF0009AA389A30FC088EC90E098A38F8F8F8D53
:101D000098A10197F1F798A38F8F89A19AA10197C4
:101D10009AA389A389A19AA1009769F714C06BA11E
:101D20007CA18DA19EA10E944900DC01CB019AA358
:101D300089A389A19AA19E8F8D8F8D8D9E8D0197EC
:101D4000F1F79E8F8D8FFE01EF5BFF4F0190F081C9
:101D5000E02D8081FE01EF5BFF4F0190F081E02DCF
:101D60009181692F41E00E94E309FE01EF5BFF4F83
:101D70000190F081E02D8081FE01EF5BFF4F01902B
:101D8000F081E02D9281692F41E00E94E309FE017C
:101D9000EF5BFF4F0190F081E02D8081FE01EF5B52
:101DA000FF4F0190F081E02D9381692F40E00E9468
:101DB000E309FE01EF5BFF4F0190F081E02D808190
:101DC000FE01EF5BFF4F0190F081E02D9481692FC0
:101DD00041E00E94E30980E090E0A0EAB1E4898F4D
:101DE0009A8FAB8FBC8F698D7A8D8B8D9C8D20E007
:101DF00030E04AEF54E40E941F02DC01CB018D8BDE
:101E00009E8BAF8BB88F6D897E898F89988D20E0EE
:101E100030E040E85FE30E94250488232CF481E051
:101E200090E09C8B8B8B3FC06D897E898F89988DCC
:101E300020E03FEF4FE757E40E94C50318164CF52A
:101E4000698D7A8D8B8D9C8D20E030E040E251E4ED
:101E50000E941F02DC01CB01BC01CD010E944900A0
:101E6000DC01CB019C8B8B8B0FC088EC90E09A8BB4
:101E7000898B89899A890197F1F79A8B898B8B894C
:101E80009C8901979C8B8B8B8B899C89009769F728
:101E900014C06D897E898F89988D0E944900DC016C
:101EA000CB019C8B8B8B8B899C89988B8F878F85A3
:101EB00098890197F1F7988B8F87FE01EF5BFF4FB1
:101EC0000190F081E02D8081FE01EF5BFF4F0190DA
:101ED000F081E02D9181692F41E00E94E309FE012C
:101EE000EF5BFF4F0190F081E02D8081FE01EF5B01
:101EF000FF4F0190F081E02D9281692F41E00E9417
:101F0000E309FE01EF5BFF4F0190F081E02D80813E
:101F1000FE01EF5BFF4F0190F081E02D9381692F6F
:101F200041E00E94E309FE01EF5BFF4F0190F08169
:101F3000E02D8081FE01EF5BFF4F0190F081E02DED
:101F40009481692F40E00E94E30980E090E0A0EADC
:101F5000B1E48B879C87AD87BE876B857C858D853B
:101F60009E8520E030E04AEF54E40E941F02DC012D
:101F7000CB018F839887A987BA876F8178858985F8
:101F80009A8520E030E040E85FE30E942504882342
:101F90002CF481E090E09E838D833FC06F81788533
:101FA00089859A8520E03FEF4FE757E40E94C503FB
:101FB00018164CF56B857C858D859E8520E030E07C
:101FC00040E251E40E941F02DC01CB01BC01CD01C3
:101FD0000E944900DC01CB019E838D830FC088ECF9
:101FE00090E09C838B838B819C810197F1F79C838C
:101FF0008B838D819E8101979E838D838D819E81B0
:10200000009769F714C06F81788589859A850E9449
:102010004900DC01CB019E838D838D819E819A8353
:10202000898389819A810197F1F79A83898389ADA0
:102030009AAD01969AAF89AF29AD3AAD8BAD9CAD03
:102040002817390708F40BCDCE5BDF4F0FB6F89495
:10205000DEBF0FBECDBFCF91DF910895DF93CF9349
:10206000CDB7DEB7C054D0400FB6F894DEBF0FBE78
:10207000CDBFFE01FF9691838083FE01FF96019004
:10208000F081E02D85819681A781B085BC01CD01CD
:1020900023E333E343E35EE30E941903DC01CB0156
:1020A0008BAF9CAFADAFBEAF6BAD7CAD8DAD9EAD1C
:1020B00020E030E040E850E40E941903DC01CB014D
:1020C000BC01CD010E944900DC01CB018AAF19AEF1
:1020D000CBC2FE01FF960190F081E02D8081FE01D0
:1020E000FF960190F081E02D9481692F40E00E94DD
:1020F000E309FE01FF960190F081E02D8081FE0151
:10210000FF960190F081E02D9381692F41E00E94BC
:10211000E309FE01FF960190F081E02D8081FE0130
:10212000FF960190F081E02D9281692F41E00E949D
:10213000E309FE01FF960190F081E02D8081FE0110
:10214000FF960190F081E02D9181692F41E00E947E
:10215000E30980E090E0A0EAB1E48DAB9EABAFABC9
:10216000B8AF6DA97EA98FA998AD20E030E04AEF05
:1021700054E40E941F02DC01CB0189AB9AABABABEC
:10218000BCAB69A97AA98BA99CA920E030E040E802
:102190005FE30E94250488232CF481E090E098AB53
:1021A0008FA73FC069A97AA98BA99CA920E03FEF1E
:1021B0004FE757E40E94C50318164CF56DA97EA998
:1021C0008FA998AD20E030E040E251E40E941F0268
:1021D000DC01CB01BC01CD010E944900DC01CB0137
:1021E00098AB8FA70FC088EC90E09EA78DA78DA518
:1021F0009EA50197F1F79EA78DA78FA598A9019796
:1022000098AB8FA78FA598A9009769F714C069A903
:102210007AA98BA99CA90E944900DC01CB0198AB4B
:102220008FA78FA598A99CA78BA78BA59CA5019785
:10223000F1F79CA78BA7FE01FF960190F081E02D9E
:102240008081FE01FF960190F081E02D9481692F3D
:1022500041E00E94E309FE01FF960190F081E02D2C
:102260008081FE01FF960190F081E02D9381692F1E
:1022700040E00E94E309FE01FF960190F081E02D0D
:102280008081FE01FF960190F081E02D9281692FFF
:1022900041E00E94E309FE01FF960190F081E02DEC
:1022A0008081FE01FF960190F081E02D9181692FE0
:1022B00041E00E94E30980E090E0A0EAB1E48FA34E
:1022C00098A7A9A7BAA76FA178A589A59AA520E084
:1022D00030E04AEF54E40E941F02DC01CB018BA3E3
:1022E0009CA3ADA3BEA36BA17CA18DA19EA120E068
:1022F00030E040E85FE30E94250488232CF481E06D
:1023000090E09AA389A33FC06BA17CA18DA19EA15F
:1023100020E03FEF4FE757E40E94C50318164CF545
:102320006FA178A589A59AA520E030E040E251E4AC
:102330000E941F02DC01CB01BC01CD010E944900BB
:10234000DC01CB019AA389A30FC088EC90E098A38D
:102350008F8F8F8D98A10197F1F798A38F8F89A107
:102360009AA101979AA389A389A19AA1009769F7D5
:1023700014C06BA17CA18DA19EA10E944900DC012B
:10238000CB019AA389A389A19AA19E8F8D8F8D8D50
:102390009E8D0197F1F79E8F8D8FFE01FF96019024
:1023A000F081E02D8081FE01FF960190F081E02D0B
:1023B0009481692F41E00E94E309FE01FF9601909C
:1023C000F081E02D8081FE01FF960190F081E02DEB
:1023D0009381692F41E00E94E309FE01FF9601907D
:1023E000F081E02D8081FE01FF960190F081E02DCB
:1023F0009281692F40E00E94E309FE01FF9601905F
:10240000F081E02D8081FE01FF960190F081E02DAA
:102410009181692F41E00E94E30980E090E0A0EA09
:10242000B1E4898F9A8FAB8FBC8F698D7A8D8B8D3C
:102430009C8D20E030E04AEF54E40E941F02DC0152
:10244000CB018D8B9E8BAF8BB88F6D897E898F89E9
:10245000988D20E030E040E85FE30E942504882367
:102460002CF481E090E09C8B8B8B3FC06D897E8942
:102470008F89988D20E03FEF4FE757E40E94C50316
:1024800018164CF5698D7A8D8B8D9C8D20E030E08F
:1024900040E251E40E941F02DC01CB01BC01CD01EE
:1024A0000E944900DC01CB019C8B8B8B0FC088EC18
:1024B00090E09A8B898B89899A890197F1F79A8B99
:1024C000898B8B899C8901979C8B8B8B8B899C89B1
:1024D000009769F714C06D897E898F89988D0E9455
:1024E0004900DC01CB019C8B8B8B8B899C89988B61
:1024F0008F878F8598890197F1F7988B8F87FE01D9
:10250000FF960190F081E02D8081FE01FF96019001
:10251000F081E02D9481692F41E00E94E309FE01E2
:10252000FF960190F081E02D8081FE01FF960190E1
:10253000F081E02D9381692F41E00E94E309FE01C3
:10254000FF960190F081E02D8081FE01FF960190C1
:10255000F081E02D9281692F41E00E94E309FE01A4
:10256000FF960190F081E02D8081FE01FF960190A1
:10257000F081E02D9181692F40E00E94E30980E025
:1025800090E0A0EAB1E48B879C87AD87BE876B851E
:102590007C858D859E8520E030E04AEF54E40E94E2
:1025A0001F02DC01CB018F839887A987BA876F81CF
:1025B000788589859A8520E030E040E85FE30E94D5
:1025C000250488232CF481E090E09E838D833FC016
:1025D0006F81788589859A8520E03FEF4FE757E442
:1025E0000E94C50318164CF56B857C858D859E85EC
:1025F00020E030E040E251E40E941F02DC01CB0108
:10260000BC01CD010E944900DC01CB019E838D837A
:102610000FC088EC90E09C838B838B819C81019719
:10262000F1F79C838B838D819E8101979E838D839F
:102630008D819E81009769F714C06F8178858985A7
:102640009A850E944900DC01CB019E838D838D8198
:102650009E819A83898389819A810197F1F79A8370
:10266000898389AD8F5F89AF99AD8AAD981708F4DA
:1026700030CDC05CDF4F0FB6F894DEBF0FBECDBFCC
:10268000CF91DF910895EF92FF920F931F93DF9305
:10269000CF93CDB7DEB7CE55D0400FB6F894DEBF9E
:1026A0000FBECDBF0E94C80C0E943808FE01EA5A36
:1026B000FF4F83E08083FE01EA5AFF4F1182FE0143
:1026C000EA5AFF4F81E08283FE01EA5AFF4F82E01F
:1026D0008383FE01EA5AFF4F83E08483FE01EA5AB6
:1026E000FF4F80E090E0A0E0B0E085839683A78371
:1026F000B08780E690E00E94E408FE01EF5AFF4FA9
:1027000080E090E0AAEFB3E480839183A283B38357
:102710008E01035B1F4FFE01EF5AFF4F60817181F5
:102720008281938120E030E04AEF54E40E941F024E
:10273000DC01CB01F80180839183A283B383FE0186
:10274000E35BFF4F608171818281938120E030E003
:1027500040E85FE30E942504882344F4FE01E55B22
:10276000FF4F81E090E09183808364C0FE01E35BD2
:10277000FF4F608171818281938120E03FEF4FE7BD
:1027800057E40E94C50318160CF043C0FE01EF5A2F
:10279000FF4F608171818281938120E030E040E2CF
:1027A00051E40E941F02DC01CB018E01055B1F4F2B
:1027B000BC01CD010E944900DC01CB01F8019183ED
:1027C00080831FC0FE01E75BFF4F88EC90E09183A0
:1027D0008083FE01E75BFF4F808191810197F1F7D4
:1027E000FE01E75BFF4F91838083DE01A55BBF4F56
:1027F000FE01E55BFF4F80819181019711969C93CB
:102800008E93FE01E55BFF4F808191810097D1F6A9
:1028100027C08E01055B1F4FFE01E35BFF4F608108
:102820007181828193810E944900DC01CB01F80112
:1028300091838083DE01A95BBF4FFE01E55BFF4F03
:10284000808191818D939C93FE01E95BFF4F808194
:1028500091810197F1F7FE01E95BFF4F918380833E
:1028600081E00E94FC068FE790E00E94E40881E08E
:1028700060E00E94C6088AE890E00E94E4080E9496
:10288000500CFE01EB5AFF4F8083FE01EB5AFF4FC5
:1028900080818F3FA1F381E00E94FC06FE01EB5A8C
:1028A000FF4F8081805D0E949A07FE01ED5BFF4F24
:1028B00080E090E0ACE8B2E480839183A283B383AC
:1028C0008E01015C1F4FFE01ED5BFF4F6081718146
:1028D0008281938120E030E04AEF54E40E941F029D
:1028E000DC01CB01F80180839183A283B383FE01D5
:1028F000FF96608171818281938120E030E040E821
:102900005FE30E94250488232CF481E090E09EAFD1
:102910008DAF46C0FE01FF966081718182819381F7
:1029200020E03FEF4FE757E40E94C503181664F517
:10293000FE01ED5BFF4F608171818281938120E018
:1029400030E040E251E40E941F02DC01CB01BC01F7
:10295000CD010E944900DC01CB019EAF8DAF0FC0BD
:1029600088EC90E09CAF8BAF8BAD9CAD0197F1F7FD
:102970009CAF8BAF8DAD9EAD01979EAF8DAF8DADF2
:102980009EAD009769F716C0FE01FF9660817181C8
:10299000828193810E944900DC01CB019EAF8DAF03
:1029A0008DAD9EAD9AAF89AF89AD9AAD0197F1F724
:1029B0009AAF89AF81E00E94FC06FE01EB5AFF4FFF
:1029C0008081813009F0F3C084E990E00E94E4083E
:1029D00081E060E00E94C60880EA90E00E94E4087E
:1029E0000E94500CFE01EB5AFF4F8083FE01EB5A10
:1029F000FF4F80818F3FA1F381E00E94FC06FE0122
:102A0000EB5AFF4F8081805D0E949A07FE01EB5ACE
:102A1000FF4F8081813029F581E066E047E00E9428
:102A2000980981E00E94FC068DEA90E00E94E4088B
:102A30000E94500CFE01EB5AFF4F8083FE01EB5ABF
:102A4000FF4F80818F3FA1F3FE01EB5AFF4F808142
:102A50008F3F31F081E066E047E00E94CA0900CF75
:102A6000A5C0FE01EB5AFF4F8081823029F581E03D
:102A700067E046E00E94B10981E00E94FC068DEA11
:102A800090E00E94E4080E94500CFE01EB5AFF4FB8
:102A90008083FE01EB5AFF4F80818F3FA1F3FE013F
:102AA000EB5AFF4F80818F3F31F081E066E047E0D5
:102AB0000E94CA09D5CE7AC081E00E94FC0683EC50
:102AC00090E00E94E40880E090E0A8E4B3E48DABDD
:102AD0009EABAFABB8AF6DA97EA98FA998AD20E032
:102AE00030E04AEF54E40E941F02DC01CB0189ABC5
:102AF0009AABABABBCAB69A97AA98BA99CA920E026
:102B000030E040E85FE30E94250488232CF481E054
:102B100090E098AB8FA73FC069A97AA98BA99CA91F
:102B200020E03FEF4FE757E40E94C50318164CF52D
:102B30006DA97EA98FA998AD20E030E040E251E474
:102B40000E941F02DC01CB01BC01CD010E944900A3
:102B5000DC01CB0198AB8FA70FC088EC90E09EA75B
:102B60008DA78DA59EA50197F1F79EA78DA78FA58F
:102B700098A9019798AB8FA78FA598A9009769F797
:102B80006FCE69A97AA98BA99CA90E944900DC0192
:102B9000CB0198AB8FA78FA598A99CA78BA78BA5D6
:102BA0009CA50197F1F79CA78BA75ACE7FC2FE0187
:102BB000EB5AFF4F8081823009F078C284E990E0BF
:102BC0000E94E40881E060E00E94C60880EA90E08C
:102BD0000E94E4080E94500CFE01EB5AFF4F8083D4
:102BE000FE01EB5AFF4F80818F3FA1F381E00E94ED
:102BF000FC06FE01EB5AFF4F8081805D0E949A0720
:102C0000FE01EB5AFF4F8081813009F0E7C081E07F
:102C10000E94FC0681ED90E00E94E40881E060E003
:102C20000E94C6080E94500CFE01EB5AFF4F8083A1
:102C3000FE01EB5AFF4F80818F3FA1F3FE01EB5A5B
:102C4000FF4F80818A32C1F1FE01EB5AFF4F808134
:102C5000805D0E949A07FE01EA5AFF4F85819681A6
:102C6000A781B085BC01CD0120E030E040E251E415
:102C70000E941F02DC01CB017C018D01FE01EB5A99
:102C8000FF4F8081882F90E0AA2797FDA095BA2F4B
:102C9000BC01CD010E9455049B01AC01C801B701E4
:102CA0000E94F201DC01CB01FE01EA5AFF4F85834D
:102CB0009683A783B087B6CFFE01EB5AFF4F808182
:102CC0008F3F09F48AC0CE018A5A9F4F0E94EC0CB4
:102CD00081E00E94FC068EED90E00E94E40880E016
:102CE00090E0AAEFB3E48FA398A7A9A7BAA76FA112
:102CF00078A589A59AA520E030E04AEF54E40E9427
:102D00001F02DC01CB018BA39CA3ADA3BEA36BA1CF
:102D10007CA18DA19EA120E030E040E85FE30E940D
:102D2000250488232CF481E090E09AA389A33FC076
:102D30006BA17CA18DA19EA120E03FEF4FE757E45E
:102D40000E94C50318164CF56FA178A589A59AA510
:102D500020E030E040E251E40E941F02DC01CB01A0
:102D6000BC01CD010E944900DC01CB019AA389A3DB
:102D70000FC088EC90E098A38F8F8F8D98A101975A
:102D8000F1F798A38F8F89A19AA101979AA389A39C
:102D900089A19AA1009769F714C06BA17CA18DA1AC
:102DA0009EA10E944900DC01CB019AA389A389A1BD
:102DB0009AA19E8F8D8F8D8D9E8D0197F1F79E8F9D
:102DC0008D8FFE01EA5AFF4F80E090E0A0E0B0E076
:102DD00085839683A783B08743CD68C1FE01EB5AF4
:102DE000FF4F8081823009F0E7C081E00E94FC063D
:102DF00081ED90E00E94E40881E060E00E94C60856
:102E00000E94500CFE01EB5AFF4F8083FE01EB5AEB
:102E1000FF4F80818F3FA1F3FE01EB5AFF4F80816E
:102E20008A32C1F1FE01EB5AFF4F8081805D0E9422
:102E30009A07FE01EA5AFF4F85819681A781B085E6
:102E4000BC01CD0120E030E040E251E40E941F02CD
:102E5000DC01CB017C018D01FE01EB5AFF4F80812B
:102E6000882F90E0AA2797FDA095BA2FBC01CD012D
:102E70000E9455049B01AC01C801B7010E94F201F8
:102E8000DC01CB01FE01EA5AFF4F85839683A783BD
:102E9000B087B6CFFE01EB5AFF4F80818F3F09F418
:102EA0008AC0CE018A5A9F4F0E942E1081E00E9454
:102EB000FC068EED90E00E94E40880E090E0AAEF2E
:102EC000B3E4898F9A8FAB8FBC8F698D7A8D8B8D90
:102ED0009C8D20E030E04AEF54E40E941F02DC01A8
:102EE000CB018D8B9E8BAF8BB88F6D897E898F893F
:102EF000988D20E030E040E85FE30E9425048823BD
:102F00002CF481E090E09C8B8B8B3FC06D897E8997
:102F10008F89988D20E03FEF4FE757E40E94C5036B
:102F200018164CF5698D7A8D8B8D9C8D20E030E0E4
:102F300040E251E40E941F02DC01CB01BC01CD0143
:102F40000E944900DC01CB019C8B8B8B0FC088EC6D
:102F500090E09A8B898B89899A890197F1F79A8BEE
:102F6000898B8B899C8901979C8B8B8B8B899C8906
:102F7000009769F714C06D897E898F89988D0E94AA
:102F80004900DC01CB019C8B8B8B8B899C89988BB6
:102F90008F878F8598890197F1F7988B8F87FE012E
:102FA000EA5AFF4F80E090E0A0E0B0E0858396838E
:102FB000A783B08755CC7AC081E00E94FC0683ECE1
:102FC00090E00E94E40880E090E0A8E4B3E48B87FE
:102FD0009C87AD87BE876B857C858D859E8520E02F
:102FE00030E04AEF54E40E941F02DC01CB018F83E2
:102FF0009887A987BA876F81788589859A8520E027
:1030000030E040E85FE30E94250488232CF481E04F
:1030100090E09E838D833FC06F81788589859A85F6
:1030200020E03FEF4FE757E40E94C50318164CF528
:103030006B857C858D859E8520E030E040E251E403
:103040000E941F02DC01CB01BC01CD010E9449009E
:10305000DC01CB019E838D830FC088EC90E09C83C4
:103060008B838B819C810197F1F79C838B838D816E
:103070009E8101979E838D838D819E81009769F744
:10308000EFCB6F81788589859A850E944900DC01A4
:10309000CB019E838D838D819E819A8389838981D3
:1030A0009A810197F1F79A838983DACBFFCFA1E266
:1030B0001A2EAA1BBB1BFD010DC0AA1FBB1FEE1FB2
:1030C000FF1FA217B307E407F50720F0A21BB30BFD
:1030D000E40BF50B661F771F881F991F1A9469F779
:1030E00060957095809590959B01AC01BD01CF01D5
:1030F00008952F923F924F925F926F927F928F929C
:103100009F92AF92BF92CF92DF92EF92FF920F9376
:103110001F93CF93DF93CDB7DEB7CA1BDB0B0FB680
:10312000F894DEBF0FBECDBF09942A88398848883D
:103130005F846E847D848C849B84AA84B984C884D3
:10314000DF80EE80FD800C811B81AA81B981CE0FCA
:10315000D11D0FB6F894DEBF0FBECDBFED010895AF
:04316000F894FFCF11
:1031640057656C636F6D6520746F204D6F746F725B
:103174002044617368626F6172642041707000441E
:1031840043206D6F746F723A3100737465707065AB
:10319400723A3200526F746174652043573A3100B9
:1031A400526F74617465204343573A32005072651C
:1031B400737320616E79206B657920746F2053746A
:1031C4006F700057726F6E67206F7074696F6E2135
:1031D40000456E74657220616E676C653A00416EDD
:1031E400676C6520526561636865640000000000D7
:1031F40000000000000102020303030304040404AA
:10320400040404040505050505050505050505056E
:10321400050505050606060606060606060606064E
:10322400060606060606060606060606060606063A
:10323400060606060707070707070707070707071E
:10324400070707070707070707070707070707070A
:1032540007070707070707070707070707070707FA
:1032640007070707070707070707070707070707EA
:1032740007070707080808080808080808080808CE
:1032840008080808080808080808080808080808BA
:1032940008080808080808080808080808080808AA
:1032A400080808080808080808080808080808089A
:1032B400080808080808080808080808080808088A
:1032C400080808080808080808080808080808087A
:1032D400080808080808080808080808080808086A
:1032E400080808080808080808080808080808085A
:1032F4000808080803040506000102010203040586
:08330400060708092A00230056
:00000001FF
